:100000000C94E2000C940A010C940A010C940A016D
:100010000C940A010C940A010C940A010C940A0134
:100020000C940A010C940A010C940A010C940A0124
:100030000C940A010C940A010C940A010C940A0114
:100040000C944E090C940A010C94820A0C94C90A6F
:100050000C940A010C940A010C940A010C940A01F4
:100060000C940A010C940A01005EBCE2613FDD833E
:10007000C29C7E20A3FD1F419DC3217FFCA2401E88
:100080005F01E3BD3E6082DC237D9FC1421CFEA078
:10009000E1BF5D0380DE3C62BEE0025CDF81633D68
:1000A0007C22C09E1D43A1FF4618FAA427799BC558
:1000B00084DA3866E5BB5907DB856739BAE4065848
:1000C0001947A5FB7826C49A653BD987045AB8E638
:1000D000A7F91B45C6987A24F8A6441A99C7257B28
:1000E0003A6486D85B05E7B98CD2306EEDB3510F18
:1000F0004E10F2AC2F7193CD114FADF3702ECC9208
:10010000D38D6F31B2EC0E50AFF1134DCE90722CF7
:100110006D33D18F0C52B0EE326C8ED0530DEFB1E7
:10012000F0AE4C1291CF2D73CA947628ABF51749D7
:100130000856B4EA6937D58B5709EBB536688AD4C7
:1001400095CB2977F4AA4816E9B7550B88D6346AB7
:100150002B7597C94A14F6A8742AC896154BA9F7A7
:10016000B6E80A54D7896B35000000002400270048
:100170002A0000000000250028002B0000000000DD
:1001800023002600290004040404040404040202D9
:100190000202020203030303030301020408102006
:1001A0004080010204081020010204081020000011
:1001B0000007000201000003040600000000000028
:1001C00000002F0C11241FBECFEFD4E0DEBFCDBF47
:1001D00011E0A0E0B1E0E4EFF1E202C005900D9281
:1001E000A63CB107D9F712E0A6ECB1E001C01D9220
:1001F000AA3EB107E1F711E0C4ECD1E004C02297B8
:10020000FE010E94F410C23CD107C9F70E947F0C86
:100210000C94F8100C940000CF93DF93BC01823053
:10022000910510F462E070E0A091E802B091E9025B
:10023000ED01E0E0F0E040E050E021C088819981EC
:100240008617970769F48A819B81309719F0938309
:10025000828304C09093E9028093E802FE0134C0D7
:100260006817790738F44115510519F08417950777
:1002700008F4AC01FE018A819B819C01E901209771
:10028000E9F641155105A9F1CA01861B970B0497A0
:1002900008F4BA01E0E0F0E02AC08D919C9111973A
:1002A00084179507F9F46417750781F412968D91F8
:1002B0009C911397309719F09383828304C0909395
:1002C000E9028093E802FD0132964CC0CA01861B08
:1002D000970BFD01E80FF91F6193719302978D93BE
:1002E0009C9340C0FD01828193819C01D9011097AC
:1002F000A1F68091E6029091E702892B41F480916A
:10030000A2019091A3019093E7028093E6024091AD
:10031000A4015091A5014115510541F44DB75EB7B7
:100320008091A0019091A101481B590B2091E602F8
:100330003091E702CA01821B930B8617970780F062
:10034000AB014E5F5F4F8417950750F0420F531F6C
:100350005093E7024093E602F9016193719302C062
:10036000E0E0F0E0CF01DF91CF910895CF93DF93EC
:10037000009709F450C0EC0122971B821A82A091C9
:10038000E802B091E902109709F140E050E0AC17A3
:10039000BD0708F1BB83AA83FE0121913191E20FD1
:1003A000F31FAE17BF0779F48D919C911197280F19
:1003B000391F2E5F3F4F3983288312968D919C9170
:1003C00013979B838A834115510571F4D093E902F9
:1003D000C093E80220C012968D919C911397AD01B5
:1003E000009711F0DC01D3CFFA01D383C2832191AE
:1003F0003191E20FF31FCE17DF0769F488819981ED
:10040000280F391F2E5F3F4FFA01318320838A81E5
:100410009B8193838283DF91CF9108951F93CF9324
:10042000DF93EC0110E08881803130F487EC92E0BA
:1004300060E071E00E94E60D87EC92E0699140E196
:1004400050E00E94620D1F5F183069F7DF91CF9175
:100450001F910895CF92DF92EF92FF920F931F9317
:10046000CF93DF93C6EDD1E096E2C92E92E0D92E6C
:10047000888199810E94E508888199810E94C00540
:10048000F60180831182888199810E94C807EE2439
:10049000FF242DC0870183E0000F111F8A95E1F72B
:1004A0000A511E4F88819981B8014E2D0E94B708CC
:1004B000C8010E940E0287EC92E062E071E00E94A7
:1004C000E60D88819981B8010E94F907AB01BC0152
:1004D00087EC92E022E030E00E94840E87EC92E00C
:1004E00062E071E00E94E60D0894E11CF11CF60147
:1004F00080819181E816F9066CF2229682E090E004
:10050000C80ED91E91E0C63ED90709F0B1CF87ECDD
:1005100092E00E94BB0C60E177E280E090E00E94F4
:10052000A409DF91CF911F910F91FF90EF90DF9081
:10053000CF9008956F927F928F929F92AF92BF92C9
:10054000CF92DF92EF92FF920F931F93CF93DF939F
:1005500087EC92E040E855E260E070E00E94040B16
:1005600060E375E780E090E00E94A40987EC92E0E8
:1005700064E071E00E94870E66EA662E61E0762EE6
:1005800056EC852E51E0952E46EDC42E41E0D42E3A
:1005900036E2A32E32E0B32E8EE090E00E948E0C65
:1005A000182F092FF301F080E1806F2D0E947B0549
:1005B000F4011083018383E190E00E948E0C182FD8
:1005C000092FF401608171810E94B105F601108349
:1005D0000183812F902F0E94E508F601808191818F
:1005E0000E94C005F5018083118287EC92E065E0EE
:1005F00071E00E94E60D87EC92E069E171E00E94F3
:10060000E60DF5016081718187EC92E04AE050E0EF
:100610000E94B40D87EC92E060E271E00E94E60D6A
:1006200087EC92E06F2D7E2D4AE050E00E94C70DCE
:1006300000E010E04AC0E80123E0CC0FDD1F2A955E
:10064000E1F7CA51DE4FF60180819181BE01402F52
:100650000E94B708882321F187EC92E062E371E001
:100660000E94E60D87EC92E0B8014AE050E00E945B
:10067000B40D87EC92E060E471E00E94E60DCE01DB
:100680000E940E0287EC92E064E071E00E94E60DA9
:10069000F60180819181BE0149E00E94630813C088
:1006A00087EC92E060E571E00E94E60D87EC92E055
:1006B000B8014AE050E00E94B40D87EC92E067E692
:1006C00071E00E94E60D0F5F1F4FF501808191815F
:1006D000081719070CF4AFCF64EF71E080E090E0E9
:1006E0000E94A40982E090E0680E791E880E991E8F
:1006F000C80ED91EA80EB91E96EB691691E07906B0
:1007000009F04ACFDF91CF911F910F91FF90EF90A9
:10071000DF90CF90BF90AF909F908F907F906F9021
:100720000895FC0113861586148687E090E01286F2
:100730003197009711F00197FACF0895DC0180E01E
:100740000BC0E82FF0E08D9190E0E827F927E859F9
:10075000FF4FE49161508E2F662399F70895DF9241
:10076000EF92FF920F931F93FC01E08001811281B1
:10077000F894F80181818E2981838281DE2CD094C6
:100780008D21828383E090E00E94FD09F801818140
:100790008D2181838AE090E00E94FD09F8010081AB
:1007A000789485E390E00E94FD0980E010E0FF244A
:1007B0000E211F21012B09F081E01F910F91FF9065
:1007C000EF90DF900895EF92FF920F931F93CF93D6
:1007D000DF937C0101E010E0C0E0D0E0C7010E949F
:1007E000AF038111102B000F2196C830D105B1F74E
:1007F000812FDF91CF911F910F91FF90EF9008957E
:100800001F93CF93DF93FC011081C181D281912F7F
:10081000909560FF12C0F8948A8189238A83898128
:10082000812B89838AE090E00E94FD098A81812BD7
:100830008A83789487E390E011C0F8948A818923B1
:100840008A838981812B898381E490E00E94FD095C
:100850008A81812B8A83789485E090E00E94FD094B
:10086000DF91CF911F910895CF92DF92EF92FF9287
:100870000F931F93CF93DF938C01E42EFF24F39407
:10088000C0E0D0E0C62EDD2460E08F2D90E08C210A
:100890009D21892B09F061E0C8010E940004FF0C32
:1008A0002196C830D10581F7EE20A9F4F894D8013B
:1008B0001196ED91FC91129791818C9180959823DE
:1008C00091831196ED91FC91129792818C91809574
:1008D000982392837894DF91CF911F910F91FF908D
:1008E000EF90DF90CF9008956CEC40E00E943404CC
:1008F0000895EF92FF920F931F93CF93DF938C0194
:100900007B0165E540E00E943404C0E0D0E0F701DF
:10091000EC0FFD1FC801608140E00E943404219665
:10092000C830D105A1F7DF91CF911F910F91FF90B2
:10093000EF900895DF92EF92FF920F931F93CF9362
:10094000DF93FC010081C181D281F8948981D02E8E
:10095000D0948D21898378941DE7E02EFF241150D7
:1009600059F182E090E00E94FD09888190E08E219B
:100970009F21892BA1F3F8948A818D218A83898113
:10098000802B8983789484EF91E00E94FD09F8948C
:1009900089818D21898380E590E00E94FD0988810D
:1009A00010E090E0E822F922EF2809F411E07894B1
:1009B00084EA91E00E94FD09812FDF91CF911F9180
:1009C0000F91FF90EF90DF900895AF92BF92DF926A
:1009D000EF92FF920F931F93CF93DF93EC015B0194
:1009E0008D85882309F061C0CE010E949A04882376
:1009F00029F41B861D861C8690E06BC0CE0160EF3B
:100A000040E00E94340401E0DD24EE24FF24F3944E
:100A1000CE010E94AF03182FCE010E94AF03113008
:100A200019F48130E1F439C0181709F58B850817DE
:100A300070F460E0FE01EE0DF11D838190E02F2D3A
:100A400030E082239323181619064CF003C060E0AF
:100A5000081729F0093008F04CC00C874AC0FE0185
:100A6000EE0DF11D83818F29838361E009C0612F21
:100A7000FE01EE0DF11D9F2D9095838189238383C7
:100A8000CE010E9400040F5FFF0C19F4E394FF24D1
:100A9000F39487E08E1508F0BBCF013430F0DB868D
:100AA000DD2011F581E08D871FC01B861D861C8609
:100AB00090E0DE0120E030E0F501E20FF31F139635
:100AC0008C91139780832F5F3F4F1196283031050B
:100AD00099F7892FDF91CF911F910F91FF90EF90A0
:100AE000DF90BF90AF9008958B818823F1F291E061
:100AF000E0CFD02EBDCFFF920F931F938C01F62E27
:100B0000862F60E00E94420A8F2D90E0FC01E6569D
:100B1000FE4FE491D801EC938A579E4FFC016491FB
:100B2000E62FF0E0EE0FFF1FE458FE4F8591949101
:100B300012969C938E9311971B961C921B971D9651
:100B40001C921D971C961C92F80187E090E012867B
:100B50003197009711F00197FACF1F910F91FF90F5
:100B60000895FC018AE796E0928B818B76836583FA
:100B70001482108289E0818381E0828383830895D7
:100B8000FC01848108956F927F928F929F92AF9221
:100B9000BF92CF92DF92EF92FF920F931F93CF936A
:100BA000DF93FB01EA01998180E0288130E0282B66
:100BB000392BE081E23231F0E83221F0E03109F006
:100BC00084C04BC04C814F3329F1403420F44F3165
:100BD00009F07BC02FC04F3579F04F3709F075C051
:100BE000B901882777FD8095982F0E949E0F20E0FD
:100BF00030E040E85DE32EC035952795B9018827A0
:100C000077FD8095982F0E949E0F20E030E040E015
:100C10005EE320C03595279535952795B90188273E
:100C200077FD8095982F0E949E0F20E030E040E8ED
:100C30005EE310C093E0359527959A95E1F7B901E9
:100C4000882777FD8095982F0E949E0F20E030E046
:100C500040E05FE30E944E1032C0EF80359527954B
:100C6000B901882777FD8095982F0E949E0F20E07C
:100C700030E040E85EE30E949A0E3B014C016E2D8D
:100C800070E02E81621B7109882777FD8095982F6F
:100C90000E949E0F5B016C01FF2400E010E0C80180
:100CA000B7010E949C0F9B01AC01C601B5010E94D7
:100CB000030F9B01AC01C401B3010E949B0E9B0179
:100CC000AC01832F942F752F00C0262F382F492F6A
:100CD000572FB901CA01DF91CF911F910F91FF905A
:100CE000EF90DF90CF90BF90AF909F908F907F90CC
:100CF0006F9008950895EF92FF920F931F938C01C8
:100D00007B01FC01858196810E949A04F80185810E
:100D10009681B7010E947904F8018581968164EB80
:100D200040E00E943404F801858196810E94AF035F
:100D3000F82EF801858196810E949A0480E0FF20B8
:100D400009F481E01F910F91FF90EF900895EF92C9
:100D5000FF920F931F93CF93DF93EC018B017A01E6
:100D60008D819E810E949A048D819E81B8010E948E
:100D700079048D819E816EE440E00E9434048D816F
:100D80009E81F701628140E00E9434048D819E8142
:100D9000F701638140E00E943404F80180818031D2
:100DA00039F08D819E81F701648140E00E94340416
:100DB0008D819E810E949A048D819E8168E4488184
:100DC0000E9434048881882331F06AE070E080E07A
:100DD00090E00E94A4098D819E810E949A04DF9177
:100DE000CF911F910F91FF90EF900895CF92DF92D6
:100DF000EF92FF920F931F938C016B017A01FC011C
:100E0000858196810E949A04F80185819681B601B8
:100E10000E947904F801858196816EEB40E00E9482
:100E20003404F801858196810E94E303F7018083F1
:100E3000F801858196810E94E303F7018183F8011F
:100E4000858196810E94E303F7018283F801858101
:100E500096810E94E303F7018383F80185819681DF
:100E60000E94E303F7018483F801858196810E9443
:100E7000E303F7018583F801858196810E94E303EE
:100E8000F7018683F801858196810E94E303F701CB
:100E90008783F801858196810E94E303F7018087AB
:100EA000F801858196810E949A041F910F91FF900D
:100EB000EF90DF90CF900895DF93CF93CDB7DEB75B
:100EC00029970FB6F894DEBF0FBECDBFAE014F5FBE
:100ED0005F4F0E94F6068981811181E029960FB645
:100EE000F894DEBF0FBECDBFCF91DF910895CF92B2
:100EF000DF92EF92FF920F931F93CF93DF93EC015A
:100F00006B01452BE1F08B818823C9F08881882310
:100F1000B1F40E9496097B018C01CE0160E070E083
:100F20000E945C07882359F40E9496096E197F0974
:100F3000800B910B6E5E72408040904070F3F60122
:100F40006081693039F06930A0F06A3041F06B306F
:100F500081F40AC06EE570E080E090E00EC06CEBBA
:100F600070E080E090E009C067E771E080E090E029
:100F700004C06EEE72E080E090E00E94A409DF9170
:100F8000CF911F910F91FF90EF90DF90CF90089538
:100F9000CF93DF93EC018D819E810E949A048D8115
:100FA0009E810E9474048D819E8164E448810E9428
:100FB00034048A81882339F0CE012196BE0140E0B5
:100FC00050E00E947707DF91CF9108950F931F9310
:100FD0008A010E94F606C80168E00E949E0320E094
:100FE000F8019085891709F421E0822F1F910F9154
:100FF0000895CF92DF92EF92FF920F931F93DF93AA
:10100000CF93CDB7DEB729970FB6F894DEBF0FBEEA
:10101000CDBF8C017B016E010894C11CD11CA601BF
:101020000E94E607882329F460E070E08EEF92ECDE
:1010300005C0C801B701A6010E94C30529960FB6D5
:10104000F894DEBF0FBECDBFCF91DF911F910F91FE
:10105000FF90EF90DF90CF900895DF93CF93CDB7BF
:10106000DEB729970FB6F894DEBF0FBECDBF9C0147
:10107000FB0180818031D9F0C901AE014F5F5F4F24
:101080000E94E6078823A9F08D818F3371F08034A8
:1010900018F48F3171F40BC08F3519F08F3749F484
:1010A00002C08BE007C08CE005C08AE003C089E085
:1010B00001C080E029960FB6F894DEBF0FBECDBF09
:1010C000CF91DF910895CF92DF92EF92FF921F931D
:1010D000DF93CF93CDB7DEB729970FB6F894DEBF75
:1010E0000FBECDBF6C017B01142FAE014F5F5F4F70
:1010F0000E94E6078823E1F0F70180818031B9F092
:101100001A3051F01A3050F01B3021F01C3031F4FD
:101110008FE705C08FE503C08FE301C08FE18D83AA
:10112000C601B701AE014F5F5F4F0E94A70681E085
:1011300029960FB6F894DEBF0FBECDBFCF91DF91D9
:101140001F91FF90EF90DF90CF9008950F931F9322
:101150008B01CB0167E00E949E0320E0F80197819C
:10116000891709F421E0822F1F910F910895EF92C2
:10117000FF920F931F93CF93DF93EC017B01042F1A
:101180008D819E810E94910310E007C0CE01B701BE
:101190000E94A6088823A9F00AC08D819E81B7010C
:1011A0000E94E504882329F0101759F4EFCF81E05D
:1011B00001C080E0DF91CF911F910F91FF90EF90E0
:1011C00008951F5F0117A8F3E8CFAF92BF92CF92A7
:1011D000DF92EF92FF920F931F93DF93CF93CDB7E0
:1011E000DEB761970FB6F894DEBF0FBECDBF7C01AE
:1011F000FC01858196810E949103F70114826E01A2
:101200000894C11CD11C79E0A72EB12CAC0EBD1ED8
:1012100001E02BC0C701B6010E94A608882329F16E
:10122000F7018081882341F4C701B6010E947B0643
:10123000882311F0F7010083C701B601A5010E94C0
:10124000F606F7011181C701B6010E942D0881172A
:1012500018F4F701818104C0C701B6010E942D086E
:10126000F701818384818F5F8483F7018581968173
:10127000B6010E94E504882369F661960FB6F894DA
:10128000DEBF0FBECDBFCF91DF911F910F91FF90B9
:10129000EF90DF90CF90BF90AF9008951F920F9284
:1012A0000FB60F9211242F933F938F939F93AF9379
:1012B000BF9380913A0290913B02A0913C02B09181
:1012C0003D0230913E020196A11DB11D232F2D5FDD
:1012D0002D3720F02D570196A11DB11D20933E0200
:1012E00080933A0290933B02A0933C02B0933D025C
:1012F0008091360290913702A0913802B091390264
:101300000196A11DB11D8093360290933702A093E0
:101310003802B0933902BF91AF919F918F913F9165
:101320002F910F900FBE0F901F9018958FB7F894C4
:1013300020913A0230913B0240913C0250913D0293
:101340008FBFB901CA0108959B01AC017FB7F89422
:101350008091360290913702A0913802B091390203
:1013600066B5A89B05C06F3F19F00196A11DB11D80
:101370007FBFBA2FA92F982F8827860F911DA11DF7
:10138000B11D62E0880F991FAA1FBB1F6A95D1F794
:10139000BC012DC0FFB7F8948091360290913702BE
:1013A000A0913802B0913902E6B5A89B05C0EF3F85
:1013B00019F00196A11DB11DFFBFBA2FA92F982FBB
:1013C00088278E0F911DA11DB11DE2E0880F991F86
:1013D000AA1FBB1FEA95D1F7861B970B885E934027
:1013E000C8F2215030404040504068517C4F211598
:1013F00031054105510571F60895019739F0880FBF
:10140000991F880F991F02970197F1F70895789413
:1014100084B5826084BD84B5816084BD85B58260F9
:1014200085BD85B5816085BDEEE6F0E08081816097
:101430008083E1E8F0E01082808182608083808197
:1014400081608083E0E8F0E0808181608083E1EB6F
:10145000F0E0808184608083E0EBF0E08081816057
:101460008083EAE7F0E0808184608083808182600D
:1014700080838081816080838081806880831092F6
:10148000C1000895CF93DF93482F50E0CA018656DC
:101490009E4FFC0134914A575E4FFA018491882394
:1014A00069F190E0880F991FFC01E859FE4FA59162
:1014B000B491FC01EE58FE4FC591D491662351F4CE
:1014C0002FB7F8948C91932F909589238C938881D2
:1014D00089230BC0623061F42FB7F8948C91932F5D
:1014E000909589238C938881832B88832FBF06C096
:1014F0009FB7F8948C91832B8C939FBFDF91CF91F2
:10150000089508951F920F920FB60F9211242F93F2
:101510003F934F938F939F93EF93FF934091C60018
:1015200020917F02309180022F5F3F4F2F733070E8
:1015300080918102909182022817390759F0E09139
:101540007F02F0918002E15CFD4F40833093800286
:1015500020937F02FF91EF919F918F914F913F9147
:101560002F910F900FBE0F901F901895E091D3020E
:10157000F091D402E05CFF4F819191912081318103
:10158000821B930B8F739070892B11F00E94810A3C
:1015900008951F920F920FB60F9211242F933F932D
:1015A0008F939F93EF93FF932091C3023091C402D6
:1015B0008091C5029091C6022817390731F48091B5
:1015C000C1008F7D8093C10014C0E091C502F091ED
:1015D000C602ED57FD4F20818091C5029091C60251
:1015E00001968F7390709093C6028093C5022093EA
:1015F000C600FF91EF919F918F913F912F910F9096
:101600000FBE0F901F901895AF92BF92DF92EF928E
:10161000FF920F931F93CF93DF93EC017A018B011D
:10162000DD24403081EE580780E0680780E07807CD
:1016300011F0DD24D39491E0A92EB12CEC89FD8921
:10164000DD2069F0C5010E8C02C0880F991F0A9435
:10165000E2F7808360E079E08DE390E005C01082DE
:1016600060E874E88EE190E0A80197010E94D01034
:10167000215030404040504056954795379527952A
:1016800080E12030380720F0DD2011F0DD24D6CFB6
:10169000E889F9893083EA89FB892083EE89FF890B
:1016A000408121E030E0C9010A8C02C0880F991FF7
:1016B0000A94E2F7482B4083EE89FF894081C901F3
:1016C0000B8C02C0880F991F0A94E2F7482B4083C5
:1016D000EE89FF894081C9010C8C02C0880F991FD7
:1016E0000A94E2F7482B4083EE89FF8980810D8CB4
:1016F00002C0220F331F0A94E2F72095282320838B
:10170000DF91CF911F910F91FF90EF90DF90BF90ED
:10171000AF900895DC011C96ED91FC911D97E05C63
:10172000FF4F2191319180819181281B390B2F73BB
:101730003070C9010895DC011C96ED91FC911D9754
:10174000E05CFF4F20813181E054F040DF01AE5B6F
:10175000BF4F8D919C9111972817390719F42FEFDE
:101760003FEF07C08D919C91E80FF91F8081282FD2
:1017700030E0C9010895DC011C96ED91FC911D97A4
:10178000E05CFF4F20813181E054F040DF01AE5B2F
:10179000BF4F8D919C9111972817390719F42FEF9E
:1017A0003FEF10C08D919C911197E80FF91F208198
:1017B0008D919C91119701968F73907011969C93C7
:1017C0008E9330E0C9010895FC0186859785DC0180
:1017D000A05CBF4FFC01EE5BFF4F2D913C91119738
:1017E0008081918128173907C1F70895CF93DF933E
:1017F000EC01EE85FF85E05CFF4F20813181E054F4
:10180000F0402F5F3F4F2F733070DF01AE5BBF4F53
:101810008D919C91119728173907D1F3E05CFF4F08
:1018200080819181E054F040E80FF91F6083EE85DC
:10183000FF85E05CFF4F31832083EE89FF892081A3
:1018400081E090E00D8C02C0880F991F0A94E2F7A6
:10185000282B208381E090E0DF91CF9108951092B2
:10186000CA021092C90288EE93E0A0E0B0E0809333
:10187000CB029093CC02A093CD02B093CE028AEB20
:1018800091E09093C8028093C7028FE392E0909317
:10189000D4028093D30283E892E09093D60280939F
:1018A000D50285EC90E09093D8028093D70284EC27
:1018B00090E09093DA028093D90280EC90E09093CC
:1018C000DC028093DB0281EC90E09093DE02809357
:1018D000DD0286EC90E09093E0028093DF0284E0EA
:1018E0008093E10283E08093E20287E08093E30249
:1018F00085E08093E40281E08093E5020895CF9330
:10190000DF930E94070A0E949A02C6EBDAE00E9467
:101910002A022097E1F30E94B60AF9CF0E940C0137
:101920000895CF92DF92EF92FF920F931F93CF9380
:10193000DF937C016B018A01C0E0D0E00FC0D601CB
:101940006D916D01D701ED91FC910190F081E02D39
:10195000C7010995C80FD91F015010400115110585
:1019600071F7CE01DF91CF911F910F91FF90EF9012
:10197000DF90CF900895EF92FF920F931F938C0109
:10198000DC01ED91FC910190F081E02D6DE0099575
:101990007C01D801ED91FC910190F081E02DC8010E
:1019A0006AE009959C012E0D3F1DC9011F910F9101
:1019B000FF90EF900895CF93DF93DB010D9000200F
:1019C000E9F71197A61BB70BEC01E881F9810280BA
:1019D000F381E02DAD010995DF91CF9108954F92EC
:1019E0005F927F928F929F92AF92BF92CF92DF923F
:1019F000EF92FF920F931F93DF93CF93CDB7DEB794
:101A0000A1970FB6F894DEBF0FBECDBF2C01742E88
:101A1000CB01223008F42AE019A231E2C32ED12CE6
:101A2000CC0EDD1E822E9924AA24BB24672D752F8F
:101A3000A50194010E94D01079018A01C801B70163
:101A4000A50194010E94B110472D461B0894C108BE
:101A5000D1084A3014F4405D01C0495CF60140836E
:101A6000E114F1040105110521F07E2C5F2DC80160
:101A7000DDCFC201B6010E94DB0CA1960FB6F8942F
:101A8000DEBF0FBECDBFCF91DF911F910F91FF90B1
:101A9000EF90DF90CF90BF90AF909F908F907F900E
:101AA0005F904F900895DC012115310541F4ED91CF
:101AB000FC910190F081E02D642F099508950E941A
:101AC000EF0C0895EF92FF920F931F939A01E62E69
:101AD000FF2400E010E0B801A7010E94530D1F9100
:101AE0000F91FF90EF900895CF92DF92EF92FF92C7
:101AF0000F931F93CF93DF93EC016A017B012115B4
:101B0000310541F4E881F9810190F081E02D642FE5
:101B100009951FC02A303105D1F477FF17C0E8813D
:101B2000F9810190F081E02D6DE209958C01442747
:101B30005527BA014C195D096E097F09CE012AE0CB
:101B40000E94EF0C9801280F391F04C02AE00E9460
:101B5000EF0C9C01C901DF91CF911F910F91FF9074
:101B6000EF90DF90CF900895EF92FF920F931F9325
:101B70007B019A010027F7FC0095102FB801A701FF
:101B80000E94740D1F910F91FF90EF900895CF92D6
:101B9000DF92EF92FF920F931F936C017B019A01EA
:101BA0000027F7FC0095102FB801A7010E94740DC3
:101BB0008C01C6010E94BB0C080F191FC8011F91A0
:101BC0000F91FF90EF90DF90CF9008950E94DB0C73
:101BD00008957F928F929F92AF92BF92CF92DF92A1
:101BE000EF92FF920F931F93CF93DF934C017A01F3
:101BF0008B01722ECB01BA0120E030E040E050E0D2
:101C00000E94FF0E87FD03C0C0E0D0E00EC0D401EB
:101C1000ED91FC910190F081E02DC4016DE20995F8
:101C2000EC0117FB109517F9109520E030E040E02B
:101C30005FE3AA240BC0CA01B90120E030E040E212
:101C400051E40E94030F9B01AC01A394A71498F3E5
:101C5000C801B7010E949B0E5B016C010E94700FCE
:101C60007B018C01C401B801A7012AE030E00E9489
:101C7000530DC80FD91F772039F0C4016EE971E008
:101C80000E94DB0CC80FD91FC801B7010E949C0F2E
:101C90009B01AC01C601B5010E949A0E24C020E050
:101CA00030E040E251E40E944E107B018C010E9422
:101CB0006B0F5B016C01CC24B7FCC094DC2CC4011D
:101CC000B601A5012AE030E00E94740DC80FD91FAB
:101CD000C601B5010E949E0F9B01AC01C801B7016E
:101CE0000E949A0E7A947720D1F6CE01DF91CF919F
:101CF0001F910F91FF90EF90DF90CF90BF90AF902A
:101D00009F908F907F9008950E94E90D0895EF9223
:101D1000FF920F931F937C010E94DB0C8C01C70183
:101D20000E94BB0C080F191FC8011F910F91FF9053
:101D3000EF9008955058BB27AA270ED075C166D1E1
:101D400030F06BD120F031F49F3F11F41EF45BC1F1
:101D50000EF4E095E7FB51C1E92F77D180F3BA1774
:101D6000620773078407950718F071F49EF58FC119
:101D70000EF4E0950B2EBA2FA02D0B01B9019001A6
:101D80000C01CA01A0011124FF27591B99F0593FEA
:101D900050F4503E68F11A16F040A22F232F342F32
:101DA0004427585FF3CF469537952795A795F04080
:101DB0005395C9F77EF41F16BA0B620B730B840B95
:101DC000BAF09150A1F0FF0FBB1F661F771F881F4D
:101DD000C2F70EC0BA0F621F731F841F48F48795A5
:101DE00077956795B795F7959E3F08F0B3CF939594
:101DF000880F08F09927EE0F979587950895D9D009
:101E000008F481E008950CD00FC107D140F0FED056
:101E100030F021F45F3F19F0F0C0511139C1F3C027
:101E200014D198F39923C9F35523B1F3951B550B9E
:101E3000BB27AA2762177307840738F09F5F5F4F9D
:101E4000220F331F441FAA1FA9F333D00E2E3AF0DE
:101E5000E0E830D091505040E695001CCAF729D0F8
:101E6000FE2F27D0660F771F881FBB1F2617370747
:101E70004807AB07B0E809F0BB0B802DBF01FF2777
:101E800093585F4F2AF09E3F510568F0B6C000C1DD
:101E90005F3FECF3983EDCF3869577956795B795B1
:101EA000F7959F5FC9F7880F911D9695879597F9CC
:101EB0000895E1E0660F771F881FBB1F6217730745
:101EC0008407BA0720F0621B730B840BBA0BEE1F5A
:101ED00088F7E095089504D06894B111D9C00895A9
:101EE000BCD088F09F5790F0B92F9927B751A0F038
:101EF000D1F0660F771F881F991F1AF0BA95C9F79E
:101F000012C0B13081F0C3D0B1E00895C0C0672FD6
:101F1000782F8827B85F39F0B93FCCF3869577954D
:101F20006795B395D9F73EF4909580957095619536
:101F30007F4F8F4F9F4F0895E89409C097FB3EF461
:101F400090958095709561957F4F8F4F9F4F992306
:101F5000A9F0F92F96E9BB279395F6958795779584
:101F60006795B795F111F8CFFAF4BB0F11F460FF44
:101F70001BC06F5F7F4F8F4F9F4F16C0882311F09C
:101F800096E911C0772321F09EE8872F762F05C0B0
:101F9000662371F096E8862F70E060E02AF09A954B
:101FA000660F771F881FDAF7880F9695879597F940
:101FB0000895990F0008550FAA0BE0E8FEEF1616DA
:101FC0001706E807F907C0F012161306E407F5072D
:101FD00098F0621B730B840B950B39F40A2661F0A1
:101FE000232B242B252B21F408950A2609F4A14044
:101FF000A6958FEF811D811D089597F99F6780E851
:1020000070E060E008959FEF80EC089500240A944A
:102010001616170618060906089500240A941216C3
:102020001306140605060895092E0394000C11F4F6
:10203000882352F0BB0F40F4BF2B11F460FF04C0A3
:102040006F5F7F4F8F4F9F4F089557FD9058440FFC
:10205000551F59F05F3F71F04795880F97FB991F07
:1020600061F09F3F79F087950895121613061406C4
:10207000551FF2CF4695F1DF08C016161706180651
:10208000991FF1CF86957105610508940895E8942C
:10209000BB2766277727CB0197F908950BD0C4CFCC
:1020A000B5DF28F0BADF18F0952309F0A6CFABCF43
:1020B0001124EECFCADFA0F3959FD1F3950F50E026
:1020C000551F629FF001729FBB27F00DB11D639FEA
:1020D000AA27F00DB11DAA1F649F6627B00DA11D90
:1020E000661F829F2227B00DA11D621F739FB00D36
:1020F000A11D621F839FA00D611D221F749F3327A6
:10210000A00D611D231F849F600D211D822F762F3E
:102110006A2F11249F5750408AF0E1F088234AF03B
:10212000EE0FFF1FBB1F661F771F881F9150504087
:10213000A9F79E3F510570F060CFAACF5F3FECF347
:10214000983EDCF3869577956795B795F795E79573
:102150009F5FC1F7FE2B880F911D9695879597F984
:102160000895629FD001739FF001829FE00DF11DE1
:10217000649FE00DF11D929FF00D839FF00D749F01
:10218000F00D659FF00D9927729FB00DE11DF91FAD
:10219000639FB00DE11DF91FBD01CF01112408950A
:1021A000A1E21A2EAA1BBB1BFD010DC0AA1FBB1F5B
:1021B000EE1FFF1FA217B307E407F50720F0A21BCD
:1021C000B30BE40BF50B661F771F881F991F1A943A
:1021D00069F760957095809590959B01AC01BD0164
:1021E000CF010895EE0FFF1F0590F491E02D0994A3
:0421F000F894FFCF91
:1021F40030003B00004C6F636174696E6720646556
:1022040076696365732E2E2E00466F756E6420000A
:102214002064657669636573206F6E20706F7274D5
:102224002000466F756E64206465766963652000DE
:10223400207769746820616464726573733A20005E
:10224400466F756E642067686F7374206465766981
:10225400636520617420002062757420636F756C5F
:1022640064206E6F742064657465637420616464B3
:10227400726573732E20436865636B20706F776596
:102284007220616E64206361626C696E67002E0067
:102294002000EA020000020003000400050006001A
:1022A40007000800090000000000F60B910C8A0BDF
:0622B400BB0B9B0BE40BC9
:00000001FF
