:100000000C9463000C947D040C94AA040C948B0053
:100010000C948B000C948B000C948B000C948B0034
:100020000C948B000C948B000C948B000C948B0024
:100030000C948B000C948B000C948B000C948B0014
:100040000C94D7040C948B000C94B7060C94FE0609
:100050000C948B000C948B000C948B000C948B00F4
:100060000C948B000C948B000000000024002700EF
:100070002A0000000000250028002B0000000000DE
:1000800023002600290004040404040404040202DA
:100090000202020203030303030301020408102007
:1000A0004080010204081020010204081020000012
:1000B0000007000201000003040600000000000029
:1000C000000096003B0811241FBECFEFD4E0DEBF36
:1000D000CDBF11E0A0E0B1E0ECE3F4E102C0059097
:1000E0000D92AE33B107D9F712E0AEE3B1E001C033
:1000F0001D92A434B107E1F710E0C6ECD0E004C0D3
:100100002297FE010E94180AC23CD107C9F70E943B
:1001100091080C941C0A0C940000FB01DC0102C045
:1001200001900D9241505040D8F70895109240012F
:1001300008951F930E945F02882381F180914201FC
:1001400090914301892B51F580912B0160E00E9431
:100150000F0682EA91E060E071E00E94BE0910E0C3
:100160000AC0E12FF0E0E95BFE4F608182EA91E096
:100170000E94FF071F5F80914601181790F382EAE3
:1001800091E00E94CA0864E670E080E090E00E947E
:10019000680580912B0161E00E940F068EE391E0DB
:1001A00068EB7BE00E941F04882319F081E08093B4
:1001B0004101809141018823E1F00E94EE028823F1
:1001C000C1F01092410180912B0161E00E940F0665
:1001D00080E064E271E047E00E94480364E670E07A
:1001E00080E090E00E94680580912B0160E00E9411
:1001F0000F061F9108950F931F9360E47FE180E045
:1002000090E00E94680502EA11E0C80140E052EC6B
:1002100061E070E00E942E07C80140E052EC61E00E
:1002200070E02AE030E00E94AA09C80163E171E0B1
:100230000E94C10980912B0161E00E94D00581E0FC
:1002400061E041E20E9487031F910F910895282FDA
:1002500090E027FF02C05D9A01C05D985C9A880F0C
:100260004E9981605C989F5F983011F0220FF1CF1A
:100270000895BF92CF92DF92EF92FF920F931F9358
:10028000B82E2BB181E0E82EF12C012D112D00901C
:100290002D0104C0EE0CFF1C001F111F0A94D2F7A1
:1002A0008E2D809582238BB9892F0E942701D82E0D
:1002B000CC248B2D0E9427019BB1E92AEBB8282F73
:1002C00030E02C293D29C9011F910F91FF90EF903B
:1002D000DF90CF90BF900895DF92EF92FF920F933F
:1002E0001F93D82E2BB131E0E32EF12C012D112DCF
:1002F00000902D0104C0EE0CFF1C001F111F0A947A
:10030000D2F78E2D809582238BB9892F0E942701E9
:100310008D2D0E9427018BB1E82AEBB81F910F9118
:10032000FF90EF90DF900895E8980E943901E89AD5
:10033000089580E090E00E946C01809192018530E8
:1003400009F054C080E090EB0E943901282F809181
:100350009401882371F490919301992351F0809135
:100360009401E82FF0E0EC5BFE4F90838F5F809369
:10037000940180919401E82FF0E0EC5BFE4F208324
:100380008F5F809394018091420190914301822775
:10039000282F22952827022E269526952025022EE5
:1003A000269520252770082E892F269507942795B6
:1003B000902D8227069427959025822790934301BC
:1003C00080934201809146012091940190E004962F
:1003D00030E0821793072CF080919401873408F461
:1003E0006DC08DE092E80E946C01089580919201A9
:1003F00087FF2EC0E0914601809192018F5F80932C
:1004000092018150ED5FE80FF0E0EC5BFE4FE08180
:1004100080914201909143018E27282F2295282711
:10042000022E269526952025022E2695202527701A
:10043000082E892F269507942795902D82270694BC
:10044000279590258227909343018093420130C0E5
:10045000809192018F5F809392018150833019F1D6
:1004600084302CF4882399F0813009F516C0893046
:1004700019F08A30E1F402C0EDE21AC0E091930174
:10048000909146018EEF891B8093920111C080915B
:10049000420190914301E82F0BC08091420190915D
:1004A0004301E92F05C08DE092E80E946C01EAEA61
:1004B0008E2F90E0805098440E946C0108958091A6
:1004C0009201853009F042C080914601209194014B
:1004D00090E0049630E08217930724F08091940115
:1004E0008734A0F184E080939201809146018334A7
:1004F00030F081E090E0909343018093420180913D
:10050000450186FF12C080919101282F30E0C9017A
:100510008F7190704F9749F08091450190E082274C
:1005200093278F719070892B89F48091420190916B
:100530004301892B09F044C0E0918F01F0919001B3
:10054000309709F43DC080E0099546C08091920142
:10055000843011F080E008951092460180914601A8
:10056000809394018FEF9FEF90934301809342011A
:10057000209193012223D9F08227282F2295282722
:10058000022E269526952025022E269520252770B9
:10059000082E892F269507942795902D822706945B
:1005A000279590258227909343018093420185E00F
:1005B000809392018DED92E80E946C0180E0089595
:1005C0008FEF9FEFAFEFBFEF80938B0190938C0184
:1005D000A0938D01B0938E0181E0089580919201E6
:1005E000853099F480919401882379F480E090E03B
:1005F0000E94940190FD09C08DE092E80E94940150
:1006000084E08093920181E0089580E00895982F1E
:1006100086FD05C0907E809191018F71980F909317
:100620004501E0918F01F0919001309711F081E048
:1006300009958FEF9FEF9093430180934201809142
:10064000420190914301209193018227282F229506
:100650002827022E269526952025022E2695202530
:100660002770082E892F269507942795902D82278D
:100670000694279590258227909343018093420109
:1006800086E0809392018DE392E80E946C010895C8
:100690001F93182F4093460127E431E0C90150E031
:1006A0000E948D00812F0E9407031F9108958BB136
:1006B00021E030E040E050E000902D0104C0220F26
:1006C000331F441F551F0A94D2F7822B8BB98AB16E
:1006D000282B2AB983E061E00E940F0683E061E0E5
:1006E0000E94D00585E061E00E94D00586E060E0D0
:1006F0000E94D00584E061E00E94D00582E060E0C5
:100700000E94D00582E061E00E940F0608951F93C9
:10071000162F80939101409393010E94570380E02C
:1007200090E00E946C0185E092E80E946C0180E0FC
:1007300098EB02C080E090E00E946C0182E00E9491
:100740006306892BB9F3812F90E074E0880F991F1D
:100750007A95E1F7876C90680E946C0180E496EAD4
:100760000E946C0186E096EC0E946C0182EA94E99A
:100770000E946C018CEA92EC0E946C011091930132
:10078000112341F083E89AEC0E946C01812F90E0E4
:100790009E6C06C08BE89AEC0E946C018DE29EEC88
:1007A0000E946C0183E894EC0E946C0180E598E95A
:1007B0000E946C0187E79CEC0E946C0180E090EE47
:1007C0000E946C0180E098EC0E946C0189E490EC3E
:1007D0000E946C0184E0809392018091910190E0ED
:1007E0008F719070892B41F080E069E971E040E001
:1007F00050E00E94470403C080E00E946A04809198
:1008000091011F9108950F931F93CF93DF938C0154
:10081000EB0180E06115710509F081E0F801828348
:10082000882341F00E941F052197C60FD71FF801AA
:10083000D183C083DF91CF911F910F910895EF92E3
:10084000FF920F931F93CF93DF93EC017B018A817B
:10085000882311F400E00FC0088119810E941F0550
:10086000C801861B970B2AEE8136920710F400E030
:1008700006C0082F0195CE01B7010E940304802F06
:10088000DF91CF911F910F91FF90EF9008958230EB
:1008900000F5E82FF0E0EE0FFF1FEB56FE4F7183DF
:1008A0006083882319F08130A1F408C08091690029
:1008B0008C7F842B80936900E89A08958091690069
:1008C000440F551F440F551F837F842B809369006D
:1008D000E99A0895823080F4882319F0813021F458
:1008E00002C0E89801C0E998E82FF0E0EE0FFF1F82
:1008F000EB56FE4F1182108208951F920F920FB691
:100900000F9211242F933F934F935F936F937F9395
:100910008F939F93AF93BF93EF93FF938091950134
:1009200090919601892B29F0E0919501F091960123
:100930000995FF91EF91BF91AF919F918F917F9119
:100940006F915F914F913F912F910F900FBE0F903C
:100950001F9018951F920F920FB60F9211242F938C
:100960003F934F935F936F937F938F939F93AF9337
:10097000BF93EF93FF938091970190919801892BFA
:1009800029F0E0919701F09198010995FF91EF917D
:10099000BF91AF919F918F917F916F915F914F9197
:1009A0003F912F910F900FBE0F901F9018951F929F
:1009B0000F920FB60F9211242F933F938F939F9313
:1009C000AF93BF9380919D0190919E01A0919F0153
:1009D000B091A0013091A1010196A11DB11D232F5D
:1009E0002D5F2D3720F02D570196A11DB11D2093AD
:1009F000A10180939D0190939E01A0939F01B093CC
:100A0000A0018091990190919A01A0919B01B091D0
:100A10009C010196A11DB11D8093990190939A01AB
:100A2000A0939B01B0939C01BF91AF919F918F9137
:100A30003F912F910F900FBE0F901F9018958FB779
:100A4000F89420919D0130919E0140919F01509119
:100A5000A0018FBFB901CA010895789484B582605E
:100A600084BD84B5816084BD85B5826085BD85B552
:100A7000816085BDEEE6F0E0808181608083E1E801
:100A8000F0E0108280818260808380818160808339
:100A9000E0E8F0E0808181608083E1EBF0E080813C
:100AA00084608083E0EBF0E0808181608083EAE70E
:100AB000F0E0808184608083808182608083808197
:100AC000816080838081806880831092C100089556
:100AD000EF92FF920F931F93CF93DF937B018C01D3
:100AE0003FB7F8948091990190919A01A0919B0150
:100AF000B0919C0126B5A89B05C02F3F19F0019627
:100B0000A11DB11D3FBFBA2FA92F982F8827820F93
:100B1000911DA11DB11D52E0880F991FAA1FBB1F77
:100B20005A95D1F7EC0130C00E94D4093FB7F89430
:100B30008091990190919A01A0919B01B0919C01A3
:100B400026B5A89B05C02F3F19F00196A11DB11D28
:100B50003FBFBA2FA92F982F8827820F911DA11D63
:100B6000B11D32E0880F991FAA1FBB1F3A95D1F71C
:100B70008C1B9D0B885E9340B8F20894E108F10845
:100B800001091109C851DC4FE114F10401051105F7
:100B900059F6DF91CF911F910F91FF90EF9008953B
:100BA000CF93DF93482F50E0CA0186569F4FFC0138
:100BB00034914A575F4FFA018491882369F190E09C
:100BC000880F991FFC01E859FF4FA591B491FC01D2
:100BD000EE58FF4FC591D491662351F42FB7F89486
:100BE0008C91932F909589238C93888189230BC0B6
:100BF000623061F42FB7F8948C91932F90958923EC
:100C00008C938881832B88832FBF06C09FB7F8946D
:100C10008C91832B8C939FBFDF91CF910895482FA8
:100C200050E0CA0182559F4FFC012491CA018656AB
:100C30009F4FFC0194914A575F4FFA01349133233F
:100C400009F440C0222351F1233071F0243028F4FC
:100C50002130A1F0223011F514C02630B1F0273038
:100C6000C1F02430D9F404C0809180008F7703C094
:100C7000809180008F7D8093800010C084B58F7735
:100C800002C084B58F7D84BD09C08091B0008F778C
:100C900003C08091B0008F7D8093B000E32FF0E01F
:100CA000EE0FFF1FEE58FF4FA591B4912FB7F894A8
:100CB000662321F48C919095892302C08C91892B15
:100CC0008C932FBF0895682F70E0CB0182559F4F02
:100CD000FC012491CB0186569F4FFC0144916A5739
:100CE0007F4FFB019491992319F420E030E03CC040
:100CF000222351F1233071F0243028F42130A1F067
:100D0000223011F514C02630B1F02730C1F0243064
:100D1000D9F404C0809180008F7703C08091800057
:100D20008F7D8093800010C084B58F7702C084B51A
:100D30008F7D84BD09C08091B0008F7703C0809102
:100D4000B0008F7D8093B000892F90E0880F991FAD
:100D500084589F4FFC01A591B4918C9120E030E024
:100D6000842311F021E030E0C901089508951F9215
:100D70000F920FB60F9211242F933F934F938F939F
:100D80009F93EF93FF938091C00082FD19C0409123
:100D9000C6008091C001282F30E02F5F3F4F2F7396
:100DA00030708091C10190E02817390759F0E09127
:100DB000C001F0E0EE55FE4F42A32093C00102C0F7
:100DC0008091C600FF91EF919F918F914F913F913C
:100DD0002F910F900FBE0F901F9018958091C0011A
:100DE0002091C10190E0805C9F4F821B91098F731D
:100DF0009070892B11F00E94B60608951F920F92F1
:100E00000FB60F9211242F938F939F93EF93FF931D
:100E10009091C2018091C301981731F48091C10073
:100E20008F7D8093C10010C0E091C301F0E0EC5FC2
:100E3000FD4F20818091C30190E001968F739070E7
:100E40008093C3012093C600FF91EF919F918F91F2
:100E50002F910F900FBE0F901F901895AF92BF92D9
:100E6000DF92EF92FF920F931F93CF93DF93EC01EA
:100E70007A018B01DD24403081EE580780E068075D
:100E800080E0780711F0DD24D39491E0A92EB12CF5
:100E9000E889F989DD2069F0C5010C8C02C0880F52
:100EA000991F0A94E2F7808360E079E08DE390E097
:100EB00005C0108260E874E88EE190E0A801970117
:100EC0000E94F409215030404040504056954795CB
:100ED0003795279580E12030380720F0DD2011F08C
:100EE000DD24D6CFEC85FD853083EE85FF8520831C
:100EF0001D8EEA89FB89408121E030E0C901088C20
:100F000002C0880F991F0A94E2F7482B4083EA89B0
:100F1000FB894081C901098C02C0880F991F0A947E
:100F2000E2F7482B4083EA89FB894081C9010A8C9A
:100F300002C0880F991F0A94E2F7482B4083EA8980
:100F4000FB8980810B8C02C0220F331F0A94E2F7C9
:100F5000209528232083DF91CF911F910F91FF903F
:100F6000EF90DF90BF90AF900895FC01268D878DA4
:100F700030E0205C3F4F281B31092F733070C901CE
:100F80000895FC01968D878D981719F42FEF3FEF88
:100F900006C0878DE80FF11D82A1282F30E0C9011E
:100FA0000895DC015E969C915E975F968C915F97A9
:100FB000981719F42FEF3FEF10C05F968C915F9751
:100FC000FD01E80FF11D92A15F968C915F978F5FF5
:100FD0008F735F968C93292F30E0C9010895DC014F
:100FE0005D968C915D97882339F05096ED91FC9138
:100FF0005197808186FFF9CF5D961C920895DC01A0
:1010000090968C919097282F30E02F5F3F4F2F7351
:10101000307091968C91919790E028173907C9F319
:1010200090968C919097FD01E80FF11DEE59FF4FBE
:10103000608390962C9390975296ED91FC915397E4
:10104000208181E090E05B960C905B9702C0880F56
:10105000991F0A94E2F7282B208381E05D968C93F8
:101060005D975096ED91FC915197808180648083CB
:1010700081E090E008951092A5011092A40188EEFD
:1010800093E0A0E0B0E08093A6019093A701A09325
:10109000A801B093A90182E391E09093A30180930A
:1010A000A2011092C3018091C3018093C2011092EA
:1010B000C1018091C1018093C00185EC90E09093C3
:1010C000AF018093AE0184EC90E09093B1018093E6
:1010D000B00180EC90E09093B3018093B20181EC79
:1010E00090E09093B5018093B40182EC90E09093EE
:1010F000B7018093B60186EC90E09093B90180939C
:10110000B80184E08093BA0183E08093BB0187E05B
:101110008093BC0185E08093BD0181E08093BE0196
:101120000895CF93DF930E942D050E94FB00CEEE21
:10113000D6E00E9499002097E1F30E94EE06F9CFD5
:10114000CF92DF92EF92FF920F931F93CF93DF9393
:101150007C016B018A01C0E0D0E00FC0D6016D9127
:101160006D01D701ED91FC910190F081E02DC70157
:101170000995C80FD91F015010400115110571F7CD
:10118000CE01DF91CF911F910F91FF90EF90DF90F3
:10119000CF900895EF92FF920F931F938C01DC0183
:1011A000ED91FC910190F081E02D6DE009957C01BD
:1011B000D801ED91FC910190F081E02DC8016AE029
:1011C00009959C012E0D3F1DC9011F910F91FF90A4
:1011D000EF900895CF93DF93EC016115710519F439
:1011E00020E030E00FC0DB010D900020E9F71197FF
:1011F000A61BB70BE881F9810280F381E02DAD01D8
:1012000009959C01C901DF91CF9108954F925F929A
:101210007F928F929F92AF92BF92CF92DF92EF9286
:10122000FF920F931F93DF93CF93CDB7DEB7A197B4
:101230000FB6F894DEBF0FBECDBF2C01742ECB01CC
:10124000223008F42AE019A231E2C32ED12CCC0EB0
:10125000DD1E822E9924AA24BB24672D752FA5019B
:1012600094010E94F40979018A01C801B701A5011E
:1012700094010E94D509472D461B0894C108D10846
:101280004A3014F4405D01C0495CF6014083E1142A
:10129000F1040105110521F07E2C5F2DC801DDCF81
:1012A000C201B6010E94EA08A1960FB6F894DEBF0B
:1012B0000FBECDBFCF91DF911F910F91FF90EF90A7
:1012C000DF90CF90BF90AF909F908F907F905F9076
:1012D0004F900895CF92DF92EF92FF920F931F935A
:1012E000CF93DF93EC016A017B012115310541F4B5
:1012F000E881F9810190F081E02D642F09951FC0EC
:101300002A303105D1F477FF17C0E881F9810190C7
:10131000F081E02D6DE209958C0144275527BA0133
:101320004C195D096E097F09CE012AE00E94060969
:101330009801280F391F04C02AE00E9406099C0169
:10134000C901DF91CF911F910F91FF90EF90DF9036
:10135000CF900895EF92FF920F931F937C010E940C
:101360006A098C01C7010E94CA089C01200F311F25
:10137000C9011F910F91FF90EF9008950E94EA0814
:101380000895EF92FF920F931F937C010E94EA0849
:101390008C01C7010E94CA08080F191FC8011F91BC
:1013A0000F91FF90EF9008950895629FD001739F71
:1013B000F001829FE00DF11D649FE00DF11D929FF1
:1013C000F00D839FF00D749FF00D659FF00D992730
:1013D000729FB00DE11DF91F639FB00DE11DF91F54
:1013E000BD01CF0111240895A1E21A2EAA1BBB1B37
:1013F000FD010DC0AA1FBB1FEE1FFF1FA217B307E1
:10140000E407F50720F0A21BB30BE40BF50B661FF6
:10141000771F881F991F1A9469F7609570958095BA
:1014200090959B01AC01BD01CF010895EE0FFF1F08
:0C1430000590F491E02D0994F894FFCF92
:10143C004F4B2C57652052656365697665643A207D
:10144C0020200053656E6420616E642052656365D4
:10145C006976650048656C6C6F210008000300001C
:0E146C000000FF07A008B507D107C107EF0772
:00000001FF
