:100000000C9463000C947B040C94A8040C948B0057
:100010000C948B000C948B000C948B000C948B0034
:100020000C948B000C948B000C948B000C948B0024
:100030000C948B000C948B000C948B000C948B0014
:100040000C94D5040C948B000C94A6060C94F40626
:100050000C948B000C948B000C948B000C948B00F4
:100060000C948B000C948B000000000024002700EF
:100070002A0000000000250028002B0000000000DE
:1000800023002600290004040404040404040202DA
:100090000202020203030303030301020408102007
:1000A0004080010204081020010204081020000012
:1000B0000007000201000003040600000000000029
:1000C00000009600600811241FBECFEFD4E0DEBF11
:1000D000CDBF11E0A0E0B1E0EAE9F4E102C0059093
:1000E0000D92AE33B107D9F712E0AEE3B1E001C033
:1000F0001D92AC34B107E1F710E0C6ECD0E004C0CB
:100100002297FE010E94470AC23CD107C9F70E940C
:10011000B6080C944B0A0C940000FB01DC0102C0F1
:1001200001900D9241505040D8F70895109240012F
:1001300008951F930E945D02882381F180914201FE
:1001400090914301892B51F580912B0160E00E9431
:10015000FE058AE292E060E071E00E94EE0910E0A4
:100160000AC0E12FF0E0E95BFE4F60818AE292E095
:100170000E9420081F5F80914601181790F38AE2C1
:1001800092E00E94EF0864E670E080E090E00E9458
:100190002B0580912B0161E00E94FE058EE391E02A
:1001A00068EB7BE00E941D04882319F081E08093B6
:1001B0004101809141018823E1F00E94EC028823F3
:1001C000C1F01092410180912B0161E00E94FE0577
:1001D00080E064E271E047E00E94460364E670E07C
:1001E00080E090E00E942B0580912B0160E00E944E
:1001F000FE051F9108950F931F9360E47FE180E057
:1002000090E00E942B050AE212E0C80140E855E2A6
:1002100060E070E00E942F07C80160E875E24AE0E4
:1002200050E00E94CF09C80163E171E00E94F1092A
:1002300080912B0161E00E94BF0581E061E041E215
:100240000E9485031F910F910895282F90E027FFAA
:1002500002C05D9A01C05D985C9A880F4E998160DA
:100260005C989F5F983011F0220FF1CF0895BF92F4
:10027000CF92DF92EF92FF920F931F93B82E2BB184
:1002800081E0E82EF12C012D112D00902D0104C0EC
:10029000EE0CFF1C001F111F0A94D2F78E2D8095C3
:1002A00082238BB9892F0E942501D82ECC248B2D37
:1002B0000E9425019BB1E92AEBB8282F30E02C29B8
:1002C0003D29C9011F910F91FF90EF90DF90CF90D2
:1002D000BF900895DF92EF92FF920F931F93D82E55
:1002E0002BB131E0E32EF12C012D112D00902D01C9
:1002F00004C0EE0CFF1C001F111F0A94D2F78E2DB4
:10030000809582238BB9892F0E9425018D2D0E9413
:1003100025018BB1E82AEBB81F910F91FF90EF9068
:10032000DF900895E8980E943701E89A089580E0E8
:1003300090E00E946A0180919201853009F054C0DA
:1003400080E090EB0E943701282F80919401882350
:1003500071F490919301992351F080919401E82FC9
:10036000F0E0EC5BFE4F90838F5F8093940180916F
:100370009401E82FF0E0EC5BFE4F20838F5F8093C9
:10038000940180914201909143018227282F229568
:100390002827022E269526952025022E26952025F3
:1003A0002770082E892F269507942795902D822750
:1003B00006942795902582279093430180934201CC
:1003C000809146012091940190E0049630E08217DC
:1003D00093072CF080919401873408F46DC08DE070
:1003E00092E80E946A0108958091920187FF2EC0D1
:1003F000E0914601809192018F5F8093920181503C
:10040000ED5FE80FF0E0EC5BFE4FE0818091420190
:10041000909143018E27282F22952827022E26957A
:1004200026952025022E269520252770082E892F17
:10043000269507942795902D822706942795902539
:100440008227909343018093420130C080919201B2
:100450008F5F809392018150833019F184302CF4A6
:10046000882399F0813009F516C0893019F08A3057
:10047000E1F402C0EDE21AC0E091930190914601CF
:100480008EEF891B8093920111C08091420190915F
:100490004301E82F0BC08091420190914301E92F65
:1004A00005C08DE092E80E946A01EAEA8E2F90E092
:1004B000805098440E946A0108958091920185308D
:1004C00009F042C0809146012091940190E0049689
:1004D00030E08217930724F0809194018734A0F1D3
:1004E00084E08093920180914601833430F081E072
:1004F00090E090934301809342018091450186FFF3
:1005000012C080919101282F30E0C9018F71907045
:100510004F9749F08091450190E0822793278F7192
:100520009070892B89F48091420190914301892B2D
:1005300009F044C0E0918F01F0919001309709F4E7
:100540003DC080E0099546C080919201843011F051
:1005500080E00895109246018091460180939401B5
:100560008FEF9FEF9093430180934201209193017D
:100570002223D9F08227282F22952827022E26957C
:1005800026952025022E269520252770082E892FB6
:10059000269507942795902D8227069427959025D8
:1005A0008227909343018093420185E080939201DA
:1005B0008DED92E80E946A0180E008958FEF9FEF31
:1005C000AFEFBFEF80938B0190938C01A0938D01CF
:1005D000B0938E0181E0089580919201853099F465
:1005E00080919401882379F480E090E00E94920148
:1005F00090FD09C08DE092E80E94920184E0809312
:10060000920181E0089580E00895982F86FD05C04D
:10061000907E809191018F71980F90934501E091A8
:100620008F01F0919001309711F081E009958FEFE3
:100630009FEF9093430180934201809142019091FA
:100640004301209193018227282F22952827022EEB
:10065000269526952025022E269520252770082EE2
:10066000892F269507942795902D82270694279504
:1006700090258227909343018093420186E08093E6
:1006800092018DE392E80E946A0108951F93182F4A
:100690004093460127E431E0C90150E00E948D00FB
:1006A000812F0E9405031F9108958BB121E030E056
:1006B00040E050E000902D0104C0220F331F441F82
:1006C000551F0A94D2F7822B8BB98AB1282B2AB9ED
:1006D00083E061E00E94FE0583E061E00E94BF05C7
:1006E00085E061E00E94BF0586E060E00E94BF05F2
:1006F00084E061E00E94BF0582E060E00E94BF05E7
:1007000082E061E00E94FE0508951F93162F8093FA
:100710009101409393010E94550380E090E00E9474
:100720006A0185E092E80E946A0180E098EB02C0CD
:1007300080E090E00E946A0182E00E945206892BCC
:10074000B9F3812F90E074E0880F991F7A95E1F753
:10075000876C90680E946A0180E496EA0E946A01B0
:1007600086E096EC0E946A0182EA94E90E946A019E
:100770008CEA92EC0E946A0110919301112341F0DE
:1007800083E89AEC0E946A01812F90E09E6C06C07B
:100790008BE89AEC0E946A018DE29EEC0E946A014D
:1007A00083E894EC0E946A0180E598E90E946A015E
:1007B00087E79CEC0E946A0180E090EE0E946A014B
:1007C00080E098EC0E946A0189E490EC0E946A0142
:1007D00084E0809392018091910190E08F719070FC
:1007E000892B41F080E067E971E040E050E00E9431
:1007F000450403C080E00E946804809191011F912C
:1008000008950F931F93CF93DF938C01EB0180E04A
:100810006115710509F081E0F8018283882341F0B8
:100820000E941D052197C60FD71FF801D183C083F1
:10083000DF91CF911F910F910895EF92FF920F9347
:100840001F93CF93DF93EC017B018A81882311F4FE
:1008500000E00FC0088119810E941D05C801861B98
:10086000970B2AEE8136920710F400E006C0082F9D
:100870000195CE01B7010E940104802FDF91CF9135
:100880001F910F91FF90EF900895823000F5E82FAF
:10089000F0E0EE0FFF1FEB56FE4F7183608388235D
:1008A00019F08130A1F408C0809169008C7F842BFD
:1008B00080936900E89A089580916900440F551F5C
:1008C000440F551F837F842B80936900E99A089514
:1008D000823080F4882319F0813021F402C0E89836
:1008E00001C0E998E82FF0E0EE0FFF1FEB56FE4F36
:1008F0001182108208951F920F920FB60F92112449
:100900002F933F934F935F936F937F938F939F9317
:10091000AF93BF93EF93FF938091950190919601D0
:10092000892B29F0E0919501F09196010995FF91AD
:10093000EF91BF91AF919F918F917F916F915F9157
:100940004F913F912F910F900FBE0F901F901895D0
:100950001F920F920FB60F9211242F933F934F9334
:100960005F936F937F938F939F93AF93BF93EF9317
:10097000FF938091970190919801892B29F0E09144
:100980009701F09198010995FF91EF91BF91AF9177
:100990009F918F917F916F915F914F913F912F9197
:1009A0000F900FBE0F901F9018951F920F920FB6C9
:1009B0000F9211242F933F938F939F93AF93BF93E5
:1009C00080919D0190919E01A0919F01B091A00105
:1009D0003091A1010196A11DB11D232F2D5F2D374F
:1009E00020F02D570196A11DB11D2093A1018093E8
:1009F0009D0190939E01A0939F01B093A0018091CF
:100A0000990190919A01A0919B01B0919C0101964E
:100A1000A11DB11D8093990190939A01A0939B0110
:100A2000B0939C01BF91AF919F918F913F912F9176
:100A30000F900FBE0F901F9018958FB7F8942091CC
:100A40009D0130919E0140919F015091A0018FBF67
:100A5000B901CA0108959B01AC017FB7F894809158
:100A6000990190919A01A0919B01B0919C0166B56A
:100A7000A89B05C06F3F19F00196A11DB11D7FBF56
:100A8000BA2FA92F982F8827860F911DA11DB11D60
:100A900062E0880F991FAA1FBB1F6A95D1F7BC019E
:100AA0002DC0FFB7F8948091990190919A01A0917F
:100AB0009B01B0919C01E6B5A89B05C0EF3F19F0E2
:100AC0000196A11DB11DFFBFBA2FA92F982F88270E
:100AD0008E0F911DA11DB11DE2E0880F991FAA1F65
:100AE000BB1FEA95D1F7861B970B885E9340C8F22F
:100AF000215030404040504068517C4F2115310515
:100B00004105510571F60895789484B5826084BDDD
:100B100084B5816084BD85B5826085BD85B5816001
:100B200085BDEEE6F0E0808181608083E1E8F0E061
:100B30001082808182608083808181608083E0E890
:100B4000F0E0808181608083E1EBF0E0808184606F
:100B50008083E0EBF0E0808181608083EAE7F0E071
:100B600080818460808380818260808380818160D5
:100B700080838081806880831092C1000895CF9324
:100B8000DF93482F50E0CA0186569F4FFC013491F5
:100B90004A575F4FFA018491882369F190E0880FEA
:100BA000991FFC01E859FF4FA591B491FC01EE5843
:100BB000FF4FC591D491662351F42FB7F8948C91CF
:100BC000932F909589238C93888189230BC0623061
:100BD00061F42FB7F8948C91932F909589238C937F
:100BE0008881832B88832FBF06C09FB7F8948C9190
:100BF000832B8C939FBFDF91CF910895482F50E0B6
:100C0000CA0182559F4FFC012491CA0186569F4F0D
:100C1000FC0194914A575F4FFA013491332309F450
:100C200040C0222351F1233071F0243028F42130C8
:100C3000A1F0223011F514C02630B1F02730C1F0F8
:100C40002430D9F404C0809180008F7703C0809154
:100C500080008F7D8093800010C084B58F7702C0A4
:100C600084B58F7D84BD09C08091B0008F7703C0AB
:100C70008091B0008F7D8093B000E32FF0E0EE0F05
:100C8000FF1FEE58FF4FA591B4912FB7F89466233C
:100C900021F48C919095892302C08C91892B8C939F
:100CA0002FBF0895682F70E0CB0182559F4FFC0144
:100CB0002491CB0186569F4FFC0144916A577F4F88
:100CC000FB019491992319F420E030E03CC02223E9
:100CD00051F1233071F0243028F42130A1F022307A
:100CE00011F514C02630B1F02730C1F02430D9F40A
:100CF00004C0809180008F7703C0809180008F7D39
:100D00008093800010C084B58F7702C084B58F7D3A
:100D100084BD09C08091B0008F7703C08091B0007E
:100D20008F7D8093B000892F90E0880F991F8458A1
:100D30009F4FFC01A591B4918C9120E030E0842379
:100D400011F021E030E0C901089508951F920F923B
:100D50000FB60F9211242F933F934F938F939F932E
:100D6000EF93FF938091C00082FD1DC04091C600AB
:100D70002091E2013091E3012F5F3F4F2F733070DC
:100D80008091E4019091E5012817390771F0E09115
:100D9000E201F091E301EE55FE4F40833093E30111
:100DA0002093E20102C08091C600FF91EF919F91D4
:100DB0008F914F913F912F910F900FBE0F901F90E9
:100DC0001895E0913602F0913702E05CFF4F819177
:100DD000919120813181821B930B8F739070892BAD
:100DE00011F00E94A50608951F920F920FB60F9260
:100DF00011242F933F938F939F93EF93FF93209111
:100E0000260230912702809128029091290228170A
:100E1000390731F48091C1008F7D8093C10014C0E7
:100E2000E0912802F0912902EA51FE4F2081809141
:100E300028029091290201968F7390709093290255
:100E4000809328022093C600FF91EF919F918F918C
:100E50003F912F910F900FBE0F901F901895AF925A
:100E6000BF92DF92EF92FF920F931F93CF93DF9386
:100E7000EC017A018B01DD24403081EE580780E0DF
:100E8000680780E0780711F0DD24D39491E0A92E63
:100E9000B12CEC89FD89DD2069F0C50108A002C0F4
:100EA000880F991F0A94E2F7808360E079E08DE370
:100EB00090E005C0108260E874E88EE190E0A8013F
:100EC00097010E94230A21503040404050405695DF
:100ED00047953795279580E12030380720F0DD20B1
:100EE00011F0DD24D6CFE889F9893083EA89FB89BE
:100EF000208319A2EE89FF89408121E030E0C901F9
:100F00000C8C02C0880F991F0A94E2F7482B40838B
:100F1000EE89FF894081C9010D8C02C0880F991F9D
:100F20000A94E2F7482B4083EE89FF894081C9018A
:100F30000E8C02C0880F991F0A94E2F7482B408359
:100F4000EE89FF8980810F8C02C0220F331F0A9423
:100F5000E2F7209528232083DF91CF911F910F91F5
:100F6000FF90EF90DF90BF90AF900895DC011C964A
:100F7000ED91FC911D97E05CFF4F219131918081B3
:100F80009181281B390B2F733070C9010895DC0142
:100F90001C96ED91FC911D97E05CFF4F2081318103
:100FA000E054F040DF01AE5BBF4F8D919C911197F3
:100FB0002817390719F42FEF3FEF07C08D919C9147
:100FC000E80FF91F8081282F30E0C9010895DC0166
:100FD0001C96ED91FC911D97E05CFF4F20813181C3
:100FE000E054F040DF01AE5BBF4F8D919C911197B3
:100FF0002817390719F42FEF3FEF10C08D919C91FE
:101000001197E80FF91F20818D919C9111970196FE
:101010008F73907011969C938E9330E0C901089560
:10102000DC0191968C919197882339F05496ED913B
:10103000FC915597808186FFF9CF91961C92089577
:10104000CF93DF93EC01EE85FF85E05CFF4F2081BD
:101050003181E054F0402F5F3F4F2F733070DF013C
:10106000AE5BBF4F8D919C91119728173907D1F333
:10107000E05CFF4F80819181E054F040E80FF91F60
:101080006083EE85FF85E05CFF4F31832083EE892E
:10109000FF89208181E090E00F8C02C0880F991FAA
:1010A0000A94E2F7282B208381E089A3EC89FD894B
:1010B00080818064808381E090E0DF91CF9108950A
:1010C00010922D0210922C0288EE93E0A0E0B0E086
:1010D00080932E0290932F02A0933002B09331029E
:1010E00082E391E090932B0280932A0282EA91E0BE
:1010F000909337028093360286EE91E09093390206
:101100008093380285EC90E090933B0280933A0202
:1011100084EC90E090933D0280933C0280EC90E060
:1011200090933F0280933E0281EC90E090934102C5
:101130008093400282EC90E09093430280934202BD
:1011400086EC90E0909345028093440284E0809383
:10115000460283E08093470287E08093480285E05F
:101160008093490281E080934A020895CF93DF93F0
:101170000E9484050E94FB00C1EED6E00E94990007
:101180002097E1F30E94E106F9CFCF92DF92EF9230
:10119000FF920F931F93CF93DF937C016B018A0122
:1011A000C0E0D0E00FC0D6016D916D01D701ED9187
:1011B000FC910190F081E02DC7010995C80FD91F5E
:1011C000015010400115110571F7CE01DF91CF914B
:1011D0001F910F91FF90EF90DF90CF900895EF92C5
:1011E000FF920F931F938C01DC01ED91FC91019014
:1011F000F081E02D6DE009957C01D801ED91FC9125
:101200000190F081E02DC8016AE009959C012E0D46
:101210003F1DC9011F910F91FF90EF900895CF934B
:10122000DF93EC016115710519F420E030E00FC087
:10123000DB010D900020E9F71197A61BB70BE881A1
:10124000F9810280F381E02DAD0109959C01C9016E
:10125000DF91CF9108954F925F927F928F929F92EC
:10126000AF92BF92CF92DF92EF92FF920F931F93B4
:10127000DF93CF93CDB7DEB7A1970FB6F894DEBF5B
:101280000FBECDBF2C01742ECB01223008F42AE012
:1012900019A231E2C32ED12CCC0EDD1E822E992450
:1012A000AA24BB24672D752FA50194010E94230A4F
:1012B00079018A01C801B701A50194010E94040ABD
:1012C000472D461B0894C108D1084A3014F4405DEC
:1012D00001C0495CF6014083E114F10401051105E8
:1012E00021F07E2C5F2DC801DDCFC201B6010E9426
:1012F0000F09A1960FB6F894DEBF0FBECDBFCF91F8
:10130000DF911F910F91FF90EF90DF90CF90BF90F2
:10131000AF909F908F907F905F904F900895CF9265
:10132000DF92EF92FF920F931F93CF93DF93EC0125
:101330006A017B012115310541F4E881F9810190B1
:10134000F081E02D642F09951FC02A303105D1F4BA
:1013500077FF17C0E881F9810190F081E02D6DE2FF
:1013600009958C0144275527BA014C195D096E096E
:101370007F09CE012AE00E942B099801280F391F0E
:1013800004C02AE00E942B099C01C901DF91CF9182
:101390001F910F91FF90EF90DF90CF900895CF9223
:1013A000DF92EF92FF920F931F936C017B019A01E2
:1013B0000027F7FC0095102FB801A7010E948F09A4
:1013C0008C01C6010E94EF08080F191FC8011F9168
:1013D0000F91FF90EF90DF90CF9008950E940F093A
:1013E0000895EF92FF920F931F937C010E940F09C3
:1013F0008C01C7010E94EF08080F191FC8011F9137
:101400000F91FF90EF900895629FD001739FF001BC
:10141000829FE00DF11D649FE00DF11D929FF00D84
:10142000839FF00D749FF00D659FF00D9927729FBB
:10143000B00DE11DF91F639FB00DE11DF91FBD0146
:10144000CF0111240895A1E21A2EAA1BBB1BFD0196
:101450000DC0AA1FBB1FEE1FFF1FA217B307E40793
:10146000F50720F0A21BB30BE40BF50B661F771FEB
:10147000881F991F1A9469F76095709580959095CB
:101480009B01AC01BD01CF010895EE0FFF1F059038
:0A149000F491E02D0994F894FFCFC9
:10149A004F4B2C57652052656365697665643A201F
:1014AA0020200053656E6420616E64205265636576
:1014BA006976650048656C6C6F21000D00030000B9
:0E14CA0000002008C508B607E707C70710088E
:00000001FF
